:020000040800F2
:100000000410002061010008ED010008ED01000866
:10001000ED010008ED010008ED01000880B500AF1A
:1000200000F027F800BF80BD80B483B000AF7860D7
:100030007B68012B06D10A4B1B68094A43F4005325
:10004000136008E07B68002B05D1054B1B68044A50
:1000500023F40053136000BF0C37BD4680BC7047CB
:100060000C08014080B500AF0020FFF7DDFF00BFA6
:1000700080BD80B500AF0120FFF7D6FF00BF80BD77
:1000800080B400AF034B00221A6000BFBD4680BCA5
:10009000704700BF0000002080B400AF044B1B6815
:1000A000DBB2044A136000BFBD4680BC704700BF8E
:1000B000080801400000002080B483B000AF7860E1
:1000C00002E07B68013B7B607B68002BF9D100BFBD
:1000D00000BF0C37BD4680BC704780B400AF104BEA
:1000E0001B680F4A43F0040313600E4B1B680D4A54
:1000F00023F4700313600B4B0A4A1B6813600A4B0E
:100100001B68094A23F470031360074B1B68064AF7
:1001100043F02233136000BFBD4680BC704700BF70
:1001200018100240000801400408014080B500AFEB
:10013000FFF7D3FFFFF7A4FFFFF770FFFFF7ACFF58
:10014000054B1B68142BF9D9FFF78CFF0348FFF709
:10015000B3FFFFF78EFFF1E70000002080C3C90165
:1001600080B586B000AF1C4B7B611C4B3B611C4AC9
:100170001A4BD31ABB600023FB600CE07B691A7832
:100180003B691A707B6901337B613B6901333B61D9
:10019000FB680133FB60FA68BB689A42EED3114BEF
:1001A0003B61114A0F4BD31A7B600023FB6008E0D0
:1001B0003B6900221A703B6901333B61FB680133E4
:1001C000FB60FA687B689A42F2D3FFF7AFFF00BF8B
:1001D0001837BD4680BD00BFF801000800000020B0
:1001E00000000020000000200400002080B500AFC7
:0801F000FFF7B6FF00BF80BD60
:04000005080001618D
:00000001FF
