:020000040800F2
:100000001C10002041020008CD020008CD020008AB
:10001000CD020008CD020008CD02000880B400AF78
:10002000034B02221A7000BFBD4680BC704700BF60
:100030000400002080B500AF054B01221A7001209A
:1000400000F0AEF8034B044A1A6000BF80BD00BF49
:1000500004000020000000201D00000880B500AF53
:10006000054B00221A70002000F09AF8034B044A56
:100070001A6000BF80BD00BF040000200000002007
:100080001D00000880B500AF002000F089F800BF17
:1000900080BD80B500AF044B044A1A60024B1B6858
:1000A000984700BF80BD00BF000000203500000859
:1000B00080B500AF034B044A1A60024B1B68984797
:1000C00000BF80BD000000205D00000880B500AFCB
:1000D000084B00221A70084B1B681422934206DD5D
:1000E000FFF7D7FF054800F021F8FFF7E1FF00BF59
:1000F00080BD00BF100000200800002040E4E8019F
:1001000080B400AF00BFBD4680BC704780B500AF73
:10011000044B00221A7000F05FF80346024A136095
:1001200000BF80BD180000200800002080B483B00C
:1001300000AF786002E07B68013B7B607B68002B4E
:10014000F9D100BF00BF0C37BD4680BC704780B4FA
:1001500000AF104B1B680F4A43F0040313600E4BB3
:100160001B680D4A23F4700313600B4B0A4A1B688B
:1001700013600A4B1B68094A23F470031360074B92
:100180001B68064A43F02233136000BFBD4680BCA3
:10019000704700BF181002400008014004080140E9
:1001A00080B483B000AF78607B68002B06D0094B29
:1001B0001B68084A23F40053136005E0054B1B68D5
:1001C000044A43F40053136000BF0C37BD4680BCA3
:1001D000704700BF0C08014080B400AF034B1B68A0
:1001E000DBB21846BD4680BC704700BF080801401E
:1001F00080B500AFFFF7ABFFFFF782FFFFF742FFCD
:10020000094B0A4A1A600A4B0A4A1A600A4B0B4AFF
:100210001A60074B1B689847074B1B689847024BAF
:100220001B689847F5E700BF000000201D0000088C
:10023000140000200D0100080C000020CD00000873
:1002400080B586B000AF1C4B7B611C4B3B611C4AE8
:100250001A4BD31ABB600023FB600CE07B691A7851
:100260003B691A707B6901337B613B6901333B61F8
:10027000FB680133FB60FA68BB689A42EED3114B0E
:100280003B61114A0F4BD31A7B600023FB6008E0EF
:100290003B6900221A703B6901333B61FB68013303
:1002A000FB60FA687B689A42F2D3FFF7A1FF00BFB8
:1002B0001837BD4680BD00BFDC02000800000020EA
:1002C00000000020000000201900002080B500AFD1
:0C02D000FFF7B6FF00BF80BD1400000067
:0400000508000241AC
:00000001FF
