:1000000000040020A90000003501000035010000B7
:1000100035010000350100003501000080B483B0D7
:1000200000AF1C4B20221A6000237B6002E07B683B
:1000300001337B607B68C72BF9D9174B1B68164AC5
:1000400043F008031360154B1B68144A43F0080380
:100050001360134B1B68124A43F00803136000231C
:100060007B6002E07B6801337B607B680D4A9342D2
:10007000F8D90B4B1B680A4A23F0080313600023CE
:100080007B6002E07B6801337B607B68054A9342BA
:10009000F8D9DEE708E10F40005402401C55024049
:1000A000FC5302403F0D030080B586B000AF1C4BEF
:1000B0007B611C4B3B611C4A1A4BD31ABB6000236B
:1000C000FB600CE07B691A783B691A707B6901332D
:1000D0007B613B6901333B61FB680133FB60FA687C
:1000E000BB689A42EED3114B3B61114A0F4BD31AB6
:1000F0007B600023FB6008E03B6900221A703B69CB
:1001000001333B61FB680133FB60FA687B689A420C
:10011000F2D3FFF783FF00BF1837BD4680BD00BF95
:10012000400100000000002000000020000000202E
:100130000004002080B500AFFFF7B6FF00BF80BD10
:00000001FF
